:020000040800F2
:100000000020002071020008190A00081D0A0008DB
:1000100000000000000000000000000000000000E0
:10002000000000000000000000000000210A00089D
:100030000000000000000000250A0008A9090008CF
:10004000C1020008C1020008C1020008C102000884
:10005000C1020008C1020008C1020008C102000874
:10006000C1020008C1020008C1020008C102000864
:10007000C1020008C102000800000000C10200081F
:1000800000000000C10200080000000000000000A5
:10009000C102000800000000C1020008C1020008FF
:1000A000C1020008C1020008C1020008C102000824
:1000B000C1020008C102000800000000C5020008DB
:1000C000002243088B4274D303098B425FD3030A97
:1000D0008B4244D3030B8B4228D3030C8B420DD3AA
:1000E000FF22090212BA030C8B4202D31212090238
:1000F00065D0030B8B4219D300E0090AC30B8B4276
:1001000001D3CB03C01A5241830B8B4201D38B0323
:10011000C01A5241430B8B4201D34B03C01A5241C8
:10012000030B8B4201D30B03C01A5241C30A8B420B
:1001300001D3CB02C01A5241830A8B4201D38B02F6
:10014000C01A5241430A8B4201D34B02C01A52419A
:10015000030A8B4201D30B02C01A5241CDD2C3090C
:100160008B4201D3CB01C01A524183098B4201D388
:100170008B01C01A524143098B4201D34B01C01A73
:10018000524103098B4201D30B01C01A5241C308EB
:100190008B4201D3CB00C01A524183088B4201D35A
:1001A0008B00C01A524143088B4201D34B00C01A46
:1001B0005241411A00D20146524110467047FFE7B2
:1001C00001B5002000F006F802BDC0460029F7D0B6
:1001D00076E770477047C0460448054B10B5834228
:1001E00003D0044B002B00D0984710BD68000020BE
:1001F000680000200000000006480749091A89101D
:10020000CB0F591810B5491003D0044B002B00D068
:10021000984710BD68000020680000200000000022
:1002200010B5074C2378002B09D1FFF7D5FF054BFC
:10023000002B02D0044800E000BF0123237010BD52
:10024000680000200000000070170008054B10B582
:10025000002B03D00449054800E000BFFFF7CCFFA6
:1002600010BDC046000000006C00002070170008A0
:100270000D488546002103E00C4B5B584350043188
:100280000B480C4B42189A42F6D30B4A02E000236B
:1002900013600432094B9A42F9D300F0E7FB00F0F7
:1002A000FFFD00F041FBFEE700200020BC18000825
:1002B0000000002068000020680000202C010020C1
:1002C000FEE7000010B5024800F0BEFD10BDC046BC
:1002D000840000207047C046C823034AC3615168A8
:1002E00038330B4353607047002002408020704732
:1002F000042070470A4910B50A4AC469086893691E
:10030000DB0706D50B681B1A9C42F8D800209369BE
:1003100010BD0221536801200B435360F8E7C0462B
:100320000C010020002002400A4910B50A4AC469A5
:1003300008689369DB0706D50B681B1A9C42F8D83E
:100340000020936910BD0121536801200B435360C5
:10035000F8E7C0460C010020002002400A4910B511
:100360000A4AC46908689369DB0706D50B681B1A3B
:100370009C42F8D80020936910BD042153680120E5
:100380000B435360F8E7C0460C01002000200240F8
:10039000064810B50C180648844205D8880703D1D2
:1003A000002B01D00B68136010BDC0460000F8F7A9
:1003B000FE070000064810B50C180648844205D810
:1003C000012B03D18B0701D113680B6010BDC04610
:1003D0000000F8F7FE070000054BCA18054B9A42CB
:1003E00004D88B0702D101235B420B607047C046E3
:1003F0000000F8F7FE07000010B50400242100F00B
:1004000032FD200010BDC046002B08D08B0706D15E
:100410000800803008C9136010328842FAD1704752
:100420007F2330B50B4005D1F822174C12068A18ED
:10043000A24200D930BD0825144A54682C435460A8
:1004400080245568A4002C4354600B6013001049AD
:10045000C46908689A69D2070DD50A68121A9442CD
:10046000F8D89A6908215A688A435A605A68094933
:100470000A405A60DEE79A69920703D502219A6919
:100480000A439A61014BEDE77EFF00000020024025
:100490000C010020FFFDFFFF0F4930B50F4AC56971
:1004A0000C689369DB0706D50B681B1B9D42F8D8C7
:1004B0000020936930BD5368DB0706D453685B079F
:1004C00003D54369536183695361044B5868012321
:1004D0004007C00F5840EDE70C010020002002400B
:1004E0000E4930B50E4AC5690C689369DB0706D51D
:1004F0000B681B1B9D42F8D80020936930BD5368E0
:10050000DB0703D54368D3608368D360044B586826
:100510000123C007C00F5840F0E7C0460C0100207F
:10052000002002400F4930B50F4AC5690C68936935
:10053000DB0706D50B681B1B9D42F8D8002093698A
:1005400030BD5368DB0706D453689B0703D5C368E7
:10055000136103691361044B586801238007C00FBE
:100560005840EDE70C01002000200240F0B54C0699
:1005700000D085E0F8244C4D24060C19AC427FD8FD
:100580004A4C9B00A44663445B18AB4278D80825CC
:10059000474B5C682C435C6080245D68E4002C431E
:1005A0005C6014680C6054680C6094680C60D468DB
:1005B0000C6014690C6054690C6094690C60D46917
:1005C0000C60146A0C60546A0C60946A0C60D46A03
:1005D0000C60146B0C60546B0C60946B354D0C60AC
:1005E000D46B0C60C7692E689C69E40749D52C68F8
:1005F000A41BA742F8D89C6908265C68B4435C60D9
:100600005C682D4E344008265C60294B5C6834439E
:100610005C6080245E68E40034435C60146C0C64AD
:10062000546C0C64946C0C64D46C0C64146D0C6489
:10063000546D0C64946D0C64D46D0C64146E0C6475
:10064000546E0C64946E0C64D46E0C64146F0C6461
:10065000546F0C64946F0C64D26F0A64C06929688B
:100660009A69D20716D52A68521A9042F8D89A6920
:1006700008215A688A435A605A680F490A405A60EA
:10068000F0BD9C69A40703D502269C6934439C6194
:10069000074BB1E79A69920703D502219A690A4389
:1006A0009A61034BE4E7C046FEFF0000FFFFFFF73F
:1006B000002002400C010020FFFBFFFF0D480E4B05
:1006C00010B503600D4B0E4943600E4B83600E4B1B
:1006D000C3600E4B03610E4B43610E4B83610023DD
:1006E000C3610D4B1A782023C2540C4A00F0B4FBAE
:1006F00010BDC046E800002094170008EFCDAB897C
:10070000D502000805040302BFAE9D8C1615141314
:10071000C8D9EAFB272625248817000800000020F6
:100720008023204A5B05916B10B50B4393631E4AEF
:100730001E491368194080231B010B4310211360CD
:1007400053681942FCD10124194B1A481A682243F4
:100750001A60144AD1680840882109040143D16015
:10076000042113682343136013681942FCD08023CB
:1007700011685B040B43802113600A4A89041368E3
:100780000B42FCD00321D3680B43D360054A0931E7
:10079000D3680B400C2BFBD10121536B0B435363EC
:1007A00010BDC0460010024000700040FFE7FFFF90
:1007B00000200240FFFF02FFA02330B5102440219B
:1007C0000120DB059A6922439A619A690A439A617A
:1007D0009A693C390A439A619A691C310A439A61C1
:1007E0009A6960310A439A61244A9169014391618F
:1007F00099689960596859608021DD6849000D4306
:10080000DD601D68294319609968996059685960CD
:100810008021DD6849010D43DD601D6829431960B1
:100820009968996059685960D9682143D9601968F5
:100830002143196099689960596859608021DC6882
:10084000C9000C43DC601C682143196099689960F9
:10085000596859608021DC68C9010C43DC601C6860
:10086000214319609368936053685360D3680343CE
:10087000D36013680343136030BDC04600040050CA
:10088000C823802210B522485200C361214B596809
:100890000A435A60204A14689969C90721D511682A
:1008A000091BC729F8D99B6914681A4B9969C907AC
:1008B00024D51168091BC729F8D99B698023174AD9
:1008C0005B01116B0B4313630122154B52421A61FA
:1008D000002201219A60134A5A619A680A439A6079
:1008E00010BD5968C90706D45968890703D5C1687E
:1008F000196101691961074B5B68D5E75A68D2072E
:1009000003D54268DA608268DA60024B5B68D5E73B
:10091000E8000020002002400C01002000100240EE
:1009200000300240B71DC10470B5FFF7F9FEC021C9
:10093000134A144B14485360036A09061B021B0A2E
:100940000B430362002303219360073313600F4AB4
:100950000F4ED36A0B43D362FFF72EFFFFF790FFD2
:100960000C4D0D4C33682A0021000C4800F024F88F
:100970000B4B2A00336021000A4800F01DF8FEE707
:1009800010E000E0FF7C000000ED00E000100240FD
:1009900000000808D8170008E41700081C18000811
:1009A000AAAAC0B438180008024A136801331360B9
:1009B0007047C0460C0100200FB4F0B56426B5B0F6
:1009C0003AAD80CD02AC64220021200000F09FFAF5
:1009D0002B003A0063212000019500F087FBA3570C
:1009E000002B0AD10425281C211CABBE041C64204A
:1009F00035B0F0BC08BC04B018471BAD2100642220
:100A0000280000F07BFA00230424AB55201C291C8D
:100A1000ABBE051CEBE7C0467047C046FEE7C046CC
:100A20007047C0467047C0460C4B0D4A0D49D21A5C
:100A30000B6810B5002B05D01818904207D8086035
:100A4000180010BD084B18180B609042F7D900F041
:100A500021FA0C2303600D3BF2E7C04600040000BE
:100A60000020002010010020300100208022104BC7
:100A7000520019680A431A60DA680E490A40DA60BF
:100A80001A680D490A4001211A609A688A439A60DF
:100A90001A680A490A401A60DA6809490A40DA60A5
:100AA00000221A618022074B12059A607047C046E7
:100AB000001002400C40FF88F6FFF6FEFFFFFBFF30
:100AC000FFFF02FF00ED00E070B504000D00236899
:100AD0008878DB6898476B885A1E934162220233FC
:100AE000A35470BD70B505000C001600002916D087
:100AF0000B1F022B08D8072313400C339B00C3188D
:100B00005B68002B00D09847231D9B00EB185B68A7
:100B1000002B03D0320021002800984770BD6123CC
:100B20000222E9540133C252023BC25C0368002135
:100B30001B6900209847034B00206B632B68DB6820
:100B40009847E1E7C50B000870B563220400A35C79
:100B50000800042B31D024D8022B21D35C23E55A82
:100B60000433E65CB3B29D422AD22E0023682A00E9
:100B7000DB69A16D9847A36D9B19A3655C23E25ABD
:100B8000521B92B2E252002A0AD10733E35C022BD5
:100B900003D06023E35C9E4202D063230422E2542C
:100BA00070BD052BFCD10025A554A368002BF7D000
:100BB000616D20009847A560F2E70623A354EFE794
:100BC0001D00D3E7F0B5C646040000B515000529A1
:100BD00006D0062920D004291AD004BC9046F0BDC6
:100BE0006327C35D466D0168012B56D0002B19D0D9
:100BF000062B2FD07F200B6A1040012198478020C0
:100C0000236828431B6A012198470023E355E4E742
:100C10001100FFF799FFE0E7002363228354466D3C
:100C2000016883605E278B69E25B3100280098478A
:100C300008281ED07F20236828401B6A012198477E
:100C40008020236828431B6A0121984763230022E0
:100C5000E254C2E7280000258B6900220021984752
:100C6000E555A368002BB8D0616D20009847A560BA
:100C7000B3E708239846B0444346A3655C23F28853
:100C80003178E252E35B7F291AD8002A18D09A42C1
:100C9000D0D863230122E2549FE75C239846C25ACE
:100CA0008B69816D280098474346E35A82B29A4285
:100CB00000D993E039D1082398465633E35AB0441B
:100CC0004246A2655C22A3526368002B06D0220034
:100CD0003100083220009847002848D16323327839
:100CE0001340012B4BD0002B2DD0022B27D1727833
:100CF0002368012A00D18CE057B2002F00D181E097
:100D0000032A1DD130791B6A01219847327880204F
:100D100052B22843002A66DB23680022DB690021E7
:100D2000984763230522E25457E79B1A4246A35291
:100D3000A36D00049C46000C6044A0654DE7236849
:100D40007F20284079E77378092BF8D83B499B002E
:100D5000CB589F463A4B72889A4264D02369002B45
:100D6000EDD0220021005C32583130009847012834
:100D700061D00228E3D163230522E2542DE7737882
:100D8000002BDCD13381C2E723681B689847C30777
:100D900045D52368B078DB68984773885A1E93411D
:100DA00062220233A3543278B1E700233381AEE7E5
:100DB0006123E35C3372AAE7E368002BBFD0B77806
:100DC0002000390098470128B9D16123E7547B1EE0
:100DD0009F4162230337E754327898E77F202368E6
:100DE00028401B6A09E75C22F188A55A03238D423B
:100DF00001D3A152013B63220100A3542000FFF75D
:100E0000A3FEEAE630795B6A9847777230723278EF
:100E10007DE730791B6A00219847327877E7094BE4
:100E20003278A36073E7236840461B6B98475C23C6
:100E30003278E0526BE7327869E7C0465418000810
:100E4000FE030000C90A000810B5036801499B6A47
:100E5000984710BDE50A00080B0010B50100180006
:100E600000F00AF810BD10B500F001F810BD10B583
:100E700000F03AF810BD000010B50400044813005B
:100E8000002804D00A000220210000E000BF10BDAD
:100E900000000000014B18687047C04604000020A5
:100EA00070B500260C4D0D4C641BA410A64209D150
:100EB000002600F05DFC0A4D0A4C641BA410A642FB
:100EC00005D170BDB300EB5898470136EEE7B3008B
:100ED000EB5898470136F2E7B0180008B018000840
:100EE000B0180008B818000810B5034B01001868C6
:100EF00000F016F810BDC04604000020002310B515
:100F00009A4200D110BDCC5CC4540133F8E7030011
:100F10001218934200D1704719700133F9E70000AD
:100F200070B50500002910D00C1F2368002B00DAD3
:100F3000E418280000F0E6F81D4A1368002B05D1DC
:100F400063601460280000F0E5F870BDA34209D981
:100F5000216860188342F3D118685B6841182160EA
:100F6000EEE713005A68002A01D0A242F9D91968A5
:100F70005818A0420BD120680918581819608242ED
:100F8000E0D110685268411819605A60DAE7A0424F
:100F900002D90C232B60D5E721686018824203D167
:100FA000106852684118216062605C60CAE7C04600
:100FB00014010020F8B50323CD1C9D43083506001D
:100FC0000C2D1FD20C25A9421ED8300000F09AF833
:100FD00025490A681400002C1AD1244F3B68002BC5
:100FE00004D12100300000F043F8386029003000BF
:100FF00000F03EF8431C2AD10C233000336000F08F
:1010000089F803E0002DDEDA0C2333600020F8BD00
:1010100023685B1B18D40B2B03D92360E4182560CD
:1010200003E06368A2420DD10B60300000F072F85B
:10103000200007220B30231D9043C21AE7D01B1A51
:10104000A350E4E75360F0E722006468C3E703239A
:10105000C41C9C43A042E2D0211A300000F008F8E2
:10106000431CDCD1C8E7C046140100201801002051
:10107000002370B5064C050008002360FFF7D4FC80
:10108000431C03D12368002B00D02B6070BDC046E9
:101090001C01002030B514009BB005001A00002C84
:1010A00005DA8B230360012040421BB030BD822350
:1010B00068469B0083810023009104919C4200D0EC
:1010C000631E02930593012369465B42CB8128008E
:1010D0001E9B00F089F8431C01DA8B232B60002C47
:1010E000E3D00023009A1370DFE7000007B50093F8
:1010F00013000A00010002480068FFF7CBFF0EBD95
:101100000400002010B5024800F0E4FA10BDC0460B
:101110002401002010B5024800F0DDFA10BDC046E1
:1011200024010020F0B58E6885B007000C00039202
:1011300001939E423CD890238A89DB001A4234D026
:101140000325096923685B1A0293636902985D436A
:10115000EB0F5D19019B6D1001331B18AB4200D9D9
:101160001D00530532D529003800FFF723FF061E66
:1011700009D10C233B6040230120A2894042134344
:10118000A38105B0F0BD029A2169FFF7B7FEA389DC
:10119000144A1A4080231343A381029B2661F61848
:1011A00026606561019EED1AA560019B9E4200D9F3
:1011B000019E32000399206800F099FAA36800208C
:1011C0009B1BA36023689E192660DAE72A0038007B
:1011D00000F0A0FA061EE0D121693800FFF7A0FE5A
:1011E000C7E7C0467FFBFFFFF0B5A1B003901D002D
:1011F0008B890F0016001B0611D50B69002B0ED131
:101200004021FFF7D7FE38603861002805D10C2354
:10121000039A0138136021B0F0BD40237B610023A5
:1012200008AC6361203363761033A37607953500ED
:101230002B78002B01D0252B46D1AB1B05930CD06E
:10124000320039000398FFF76DFF431C00D1AEE078
:101250006269059B9446634463612B78002B00D13F
:10126000A5E0012200235242626004A954325218C0
:101270006E1C2360E360A3601370A36531780522C0
:10128000534800F029FA751C00281FD12268D306A4
:1012900004D5532304A95B1820211970130704D522
:1012A000532304A95B182B21197033782A2B16D0ED
:1012B000350000210A20E3682A786E1C303A092A9A
:1012C0004ED9002911D117E00135B1E7404B226812
:1012D000C01A01238340134323602E00CEE7079BEF
:1012E000191D1B680791002B01DB0B9304E05B4287
:1012F000E3600223134323602B782E2B0AD16B78F3
:101300002A2B35D1079B02351A1D1B680792002B2B
:101310002BDB09932F4E29780322300000F0DCF9F3
:10132000002806D04023801B8340226801351343E8
:1013300023602978062228486E1C217600F0CCF91B
:1013400000283CD0254B002B25D10722079B0733D3
:101350009343083307936369049A9B18636166E7B4
:10136000434301219B183500A6E701235B42D0E7E8
:1013700000230A201A000135636029786E1C303979
:10138000092903D9002BC5D00992C3E742430123A1
:1013900052183500F1E707AB00933A00104B2100DB
:1013A000039800E000BF0490049B0133D3D1BB89B4
:1013B0000D985B0600D42EE7012040422BE707ABD7
:1013C00000933A00064B2100039800F079F8EAE711
:1013D0007C18000882180008861800080000000029
:1013E00025110008F7B5150001938A680B69009074
:1013F0000C00934200DA130022002B604332127873
:10140000002A01D001332B6023689B0602D52B688C
:1014100002332B60062723681F4027D02300433365
:101420001B785A1E93412268920630D422000199FB
:1014300043320098089EB047431C25D006232068FD
:101440002A68E16803400025042B03D18D1AEB4381
:10145000DB171D40A3682269934201DD9B1AED183A
:101460000027BD4220D1002010E00137E3682A6840
:101470009B1ABB42D2DD2200012319320199009848
:10148000089EB047431CF0D101204042FEBD3020F1
:10149000E1184331087021005A1C45310978A2181F
:1014A000433202331170C1E7220001231A3201993D
:1014B0000098089EB047431CE6D00137D1E70000F2
:1014C000F0B58BB006920A00433207930590049260
:1014D0000A7E0C00109B6E2A00D1AFE020D8632A50
:1014E00035D008D8002A00D1B5E0582A51D02600BE
:1014F0004236327032E0642A01D0692AF7D1196885
:1015000020680A1D05062BD50D681A60002D03DA28
:101510002D23049A6D4213706C4B0A27039352E0FB
:10152000732A00D19BE008D86F2A1FD0702ADED121
:10153000202209680A43226003E0752A16D0782A1F
:10154000D5D12200782145321170614A24E026006D
:101550001A684236111D19601368337001238CE03C
:101560000D681A604106D1D52DB2CFE719682568FC
:10157000081D18602E0601D50D6803E06D06FBD529
:101580000D68ADB2514B0A2703936F2A17D1082774
:1015900015E045310A704D4A03921A68216820CA45
:1015A0001A60080644D5CB0702D5202319432160D1
:1015B0001027002D03D1202322689A4322602300A4
:1015C000002243331A706368A360002B03DB0422FC
:1015D000216891432160002D02D1049E002B0AD086
:1015E000049E39002800FEF7F1FD039B013E5B5C81
:1015F0003370AF4220D9082F09D12368DB0706D505
:1016000063682269934202DC3023013E3370049BFD
:101610009B1B2361079B09AA00932100069B059849
:10162000FFF7E0FE431C2DD1012040420BB0F0BD7E
:101630004806B8D5ADB2B6E70500D2E71A680D681E
:10164000101D4969186013682E0601D5196002E063
:101650006D06FBD519800023049E2361DAE71A6822
:10166000111D1960166800216268300000F034F81E
:10167000002801D0801B6060636823610023049A06
:101680001370C7E72369320006990598079DA8479C
:10169000431CC9D023689B0715D4099BE068984276
:1016A000C4DA1800C2E7220001231932069905980E
:1016B000079EB047431CB7D00135E368099A9B1ACF
:1016C000AB42F0DCE9E70025F7E7C0468D180008DB
:1016D0009E18000870477047C9B28218904201D125
:1016E0000020704703788B42FBD00130F6E710B53D
:1016F000884202D98B18984203D3002307E08B5C01
:101700008354013AFBD210BDCC5CC45401339A42DD
:10171000FAD1F8E7F8B507000D001600002905D149
:101720001100FFF747FC04002000F8BD002A03D198
:10173000FFF7F6FB3400F7E700F012F82C00B04298
:10174000F2D231003800FFF735FC041EECD029003E
:101750003200FFF7D3FB29003800FFF7E1FBE3E796
:101760000B1F1B68181F002B01DA0B58C01870479D
:10177000F8B5C046F8BC08BC9E467047F8B5C046F0
:08178000F8BC08BC9E4670474E
:101788003F0000000000000000000000D502000833
:10179800F9030008D9020008ED020008F102000868
:1017A80025050008F5020008E104000829030008DF
:1017B800990400085D030008090400086D05000885
:1017C8002104000891030008B5030008D9030008A4
:1017D80053656C665465737400000000463A5C6596
:1017E800636C697073652D70726A5C6234636F6DC7
:1017F8005F6364635F626F6F746C64725C696E636D
:101808006C7564652F626F6F746C6F616465722E9E
:10181800687070002573282573292D23312052659F
:101828006164204D573A202523303130780A000072
:101838002573282573292D23322052656164204D94
:10184800573A202523303130780A0000AA0D0008C5
:101858003E0D00083E0D00083E0D00083E0D000834
:10186800880D0008540D00083E0D0008B00D000852
:10187800B80D0008232D302B2000686C4C006566DD
:1018880067454647003031323334353637383941C9
:1018980042434445460030313233343536373839DF
:0818A8006162636465660000E3
:0818B0004D020008BD0600080E
:0418B8002102000801
:1018BC0000000000080000200000000000000000F4
:1018CC00000000000000000000000000000000000C
:1018DC0000000000000000000000000000000000FC
:1018EC0000000000000000000000000000000000EC
:1018FC0000000000000000000000000000000000DC
:10190C0000000000000000000000000000000000CB
:08191C000000000000000000C3
:04000005080002717C
:00000001FF
